:100000000C9440000C945D000C945D000C945D0019
:100010000C945D000C945D000C945D000C945D00EC
:100020000C945D000C945D000C94AD060C940307D9
:100030000C945D000C945D000C9413010C945D0015
:100040000C945D000C945D000C948C070C945D0086
:100050000C945D000C945D000C945D000C945D00AC
:100060000C945D000C945D00454647656667002072
:100070002B2D2E3031323334353637383968000085
:1000800011241FBECFEFD8E0DEBFCDBF12E0A0E04D
:10009000B1E0E4E8F9E102C005900D92A83CB10797
:1000A000D9F715E0A8ECB2E001C01D92AF3FB1074F
:1000B000E1F70E9431080C94C00C0C9400008436C7
:1000C000910510F484E690E09C0140E050E068E483
:1000D00078EE81E090E00E94870BC901DA01019778
:1000E000A109B1098F3F9105A105B10529F020F0C3
:1000F0008FEF90E0A0E0B0E08093B3008093B40075
:100100008091B00080618093B0000895539A5B980D
:10011000E0EBF0E082E0808384E08093B10088EC43
:100120008093B3008093B40080818F7E80835B983E
:100130000895982F80910001981781F09093000105
:100140004093C8025093C9026093CA027093CB02D5
:100150008091B0008F7E8093B0005B989230E1F583
:100160008091C8029091C902A091CA02B091CB02BD
:10017000481B590B6A0B7B0BCB01BA0120ED37E012
:1001800040E050E00E94870B9B01AC01283E83E0D9
:10019000380780E0480780E0580718F4CA01B90121
:1001A0000AC080ED97E0A0E0B0E0BC01CD01621B89
:1001B000730B840B950B20EB34E040E050E00E9481
:1001C000410B28EE33E040E050E00E94870BDA015B
:1001D000C901885A9D4F1DC09130F1F48091C80229
:1001E0009091C902A091CA02B091CB02481B590B51
:1001F0006A0B7B0BCB01BA0120E931E040E050E013
:100200000E94870B683C71058105910528F480EBFD
:1002100094E00E945F0008958091B0008F7E8093EB
:10022000B0005B9808951F920F920FB60F921124A1
:100230008F939F93AF93BF938091DC029091DD02E7
:10024000A091DE02B091DF020196A11DB11D809345
:10025000DC029093DD02A093DE02B093DF02BF9137
:10026000AF919F918F910F900FBE0F901F90189597
:1002700082E084BD93E095BD99EF97BD80936E00B9
:1002800008958FB7F8942091DC023091DD024091FF
:10029000DE025091DF028FBFB901CA01089580913B
:1002A000D602089520E08091CC029091CD0206976D
:1002B00009F421E0822F08959C018091CC02909155
:1002C000CD02069781F48091D702882361F43093A0
:1002D000D9022093D802709328026093270281E00C
:1002E0008093D702089580E008950E94D70781E0A7
:1002F00091E00E94D70708959093D3028093D20291
:100300007093D5026093D4021092DB021092DA024D
:100310001092E00281E090E09093CD028093CC02B5
:100320002FB7F8948091DC029091DD02A091DE025B
:10033000B091DF022FBF84529A4FAF4FBF4F8093CF
:10034000CE029093CF02A093D002B093D10284E06A
:1003500091E00E9475010895BC01009719F480E0B6
:1003600090E0089580EE92E00E94EB0B9C0190E0FB
:10037000232B09F491E081E09827892F0895EF92CB
:10038000FF920F931F93DF93CF93CDB7DEB7C05E7D
:10039000D1400FB6F894DEBF0FBECDBF1DC00E9486
:1003A000ED07E091DA02F091DB02DF01119692E0B5
:1003B000A030B90758F4E052FD4F8083B093DB02C0
:1003C000A093DA02A052BD4F1C9206C01092DB022D
:1003D0001092DA021092E0020E94E4078823F9F6F4
:1003E0008FB7F894E090DC02F090DD020091DE021D
:1003F0001091DF028FBF8091CC029091CD028530A9
:10040000910509F418C186309105B0F48230910548
:1004100009F463C08330910538F4009709F4FBC2F6
:10042000019709F0F2C21FC08330910509F48FC013
:10043000049709F0EAC2C5C08830910509F427C2C3
:100440008930910540F48630910509F46EC1079713
:1004500009F0DBC295C18930910509F46FC20A9792
:1004600009F0D3C2B2C287E091E00E94AC018823B8
:1004700069F01092DB021092DA021092E00282E040
:1004800090E09093CD028093CC024EC08091CE023A
:100490009091CF02A091D002B091D1028E159F050C
:1004A000A007B10708F0B7C21092DB021092DA027F
:1004B0001092E0028CED95E0A0E0B0E0E80EF91EAD
:1004C0000A1F1B1FE092CE02F092CF020093D002CF
:1004D0001093D10284E091E075C287E091E00E9420
:1004E000AC01882369F01092DB021092DA021092BC
:1004F000E00283E090E09093CD028093CC024EC066
:100500008091CE029091CF02A091D002B091D10201
:100510008E159F05A007B10708F07DC21092DB027F
:100520001092DA021092E0028CED95E0A0E0B0E0CB
:10053000E80EF91E0A1F1B1FE092CE02F092CF02B6
:100540000093D0021093D1028AE091E03BC287E091
:1005500091E00E94AC01882369F01092DB021092B6
:10056000DA021092E00284E090E09093CD02809352
:10057000CC024EC08091CE029091CF02A091D002C9
:10058000B091D1028E159F05A007B10708F043C2B4
:100590001092DB021092DA021092E0028CED95E0EC
:1005A000A0E0B0E0E80EF91E0A1F1B1FE092CE0289
:1005B000F092CF020093D0021093D1028FE091E02D
:1005C00001C287E091E00E94AC01882369F010929B
:1005D000DB021092DA021092E00285E090E0909344
:1005E000CD028093CC0260C08091CE029091CF0268
:1005F000A091D002B091D1028E159F05A007B1073E
:1006000008F009C21092DB021092DA021092E002A6
:100610008CED95E0A0E0B0E0E80EF91E0A1F1B1F6C
:10062000E092CE02F092CF020093D0021093D1025A
:100630008BE191E0C7C18AE391E00E94AC0188237D
:1006400061F487E091E00E94AC01882331F489E4F1
:1006500091E00E94AC01882369F01092DB021092B5
:10066000DA021092E00286E090E09093CD0280934F
:10067000CC02D1C18BE591E00E94AC01882371F4DA
:100680008091CE029091CF02A091D002B091D10280
:100690008E159F05A007B10708F0BDC11092DB02BF
:1006A0001092DA021092E00288EA91E6A0E0B0E04F
:1006B000E80EF91E0A1F1B1FE092CE02F092CF0235
:1006C0000093D0021093D102ADB7BEB71A970FB600
:1006D000F894BEBF0FBEADBFEDB7FEB731968E0129
:1006E000075D1F4F12961C930E93119784EB90E0B9
:1006F0009383828387E291E0958384838091D20201
:100700009091D302978386838091D4029091D502F1
:10071000918780870E94310CEDB7FEB73A960FB6ED
:10072000F894FEBF0FBEEDBFABC01092D602809111
:10073000D702882309F46FC11092D70281E0809319
:10074000D6021092DB021092DA021092E00287E0E9
:1007500090E09093CD028093CC0288E293E2A0E0F7
:10076000B0E0E80EF91E0A1F1B1FE092CE02F092C5
:10077000CF020093D0021093D10280E691E022C113
:100780008AE891E00E94AC01882369F487E091E057
:100790000E94AC01882339F489E491E00E94AC0105
:1007A000882309F46FC01092DB021092DA021092D3
:1007B000E00288E090E09093CD028093CC0288E83C
:1007C00093E1A0E0B0E0E80EF91E0A1F1B1FE092C3
:1007D000CE02F092CF020093D0021093D102ADB7B7
:1007E000BEB71A970FB6F894BEBF0FBEADBFEDB738
:1007F000FEB731968E0103521F4F12961C930E9333
:10080000119784E091E09383828382E991E095835C
:1008100084838091D8029091D902978386838091B6
:10082000270290912802918780870E94310CD8017D
:100830000D900020E9F71197A01BB10B0F900F90BE
:100840002DB73EB72F5F3F4F8E010F5F1F4FEDB7A4
:10085000FEB71283018388E290E0F90193838283DB
:100860008DEE91E095838483B783A6830E94310C3B
:100870008DB79EB708960FB6F8949EBF0FBE8DBF7A
:10088000C801A0C08BEF91E00E94AC016DC08DE06B
:1008900092E00E94AC01882309F468C01092DB0248
:1008A0001092DA021092E00289E090E09093CD027B
:1008B0008093CC0280EE9EE2A0E0B0E0E80EF91E4C
:1008C0000A1F1B1FE092CE02F092CF020093D002CB
:1008D0001093D102ADB7BEB71A970FB6F894BEBF4A
:1008E0000FBEADBFEDB7FEB731968E0103521F4F5D
:1008F00012961C930E93119784E091E09383828368
:1009000082E991E0958384838091D8029091D90205
:100910009783868380912702909128029187808710
:100920000E94310CEDB7FEB73A960FB6F894FEBFB1
:100930000FBEEDBFC8010E94D7076DC08FE092E0E7
:100940000E94AC01882301F586E192E00E94AC018F
:100950008823D1F48FE192E00E94AC018823A1F4B6
:100960008BEF91E00E94AC01882371F48091CE025C
:100970009091CF02A091D002B091D1028E159F0527
:10098000A007B10708F047C01092DB021092DA020C
:100990001092E0028AE090E09093CD028093CC0226
:1009A00084EC99E0A0E0B0E0E80EF91E0A1F1B1FDE
:1009B000E092CE02F092CF020093D0021093D102C7
:1009C00081E092E00E94750126C087E091E00E94DC
:1009D000AC01882369F48091CE029091CF02A0915E
:1009E000D002B091D1028E159F05A007B10798F4EF
:1009F0001092DB021092DA021092E00286E090E0A0
:100A00009093CD028093CC0204C01092CD0210923C
:100A1000CC021092D602C052DE4F0FB6F894DEBF61
:100A20000FBECDBFCF91DF911F910F91FF90EF903F
:100A300008958AB180678AB98BB18F788BB9579A3C
:100A40005F9808958BB18F788BB908958BB18F78AB
:100A50008BB95C9A08958BB18F788BB95D9A0895A4
:100A60008BB18F788BB95E9A089597FD0FC08F3147
:100A700091052CF48BB18F788BB95C9A089581978E
:100A80002CF48BB18F788BB95D9A08958BB18F78E8
:100A90008BB95E9A08951F93182F8EE40E944D071C
:100AA000882321F0812F88600E9476070E948807A2
:100AB0001F9108951F93611161E0162F80FD106151
:100AC00081FD106282FD106483FD1068812F0E94F9
:100AD0004B05812F84600E944B0585E08A95F1F7D4
:100AE000812F8B7F0E944B0588EC90E00197F1F7F6
:100AF0001F9108950F931F93182F062F82958F70C3
:100B00000E945A05812F8F70602F0E945A051F91F5
:100B10000F910895CF93DF93EC0104C0219661E01B
:100B20000E947A0588818823C9F7DF91CF910895C3
:100B3000DF93CF93CDB7DEB761970FB6F894DEBFE2
:100B40000FBECDBFFE01319640E29E012F5E3F4FAA
:100B50004193E217F307E1F7198A0097A9F020E023
:100B600030E0BE016F5F7F4F09C0FB01E20FF31F52
:100B700040832F5F3F4F2031310531F0FC01E20F00
:100B8000F31F4081442389F7CE0101960E948A0514
:100B900061960FB6F894DEBF0FBECDBFCF91DF9147
:100BA00008951F93182F60E00E947A0511501230AB
:100BB00020F480E49FE10197F1F71F910895982FA9
:100BC000611161E0E62FF0E0E75DFD4F8081890F64
:100BD00080680E94D105089581E00E94D1050895A2
:100BE0000F931F9360EA76E881E090E00E942B0764
:100BF00084EF91E020E931E0F9013197F1F70197B5
:100C0000D9F783E060E00E945A0580E29EE40197F4
:100C1000F1F783E060E00E945A0508E512E0C801A0
:100C20000197F1F783E060E00E945A05C80101973F
:100C3000F1F782E060E00E945A05C8010197F1F7E0
:100C400088E20E94D10588E00E94D10581E00E94DF
:100C5000D10586E00E94D1058CE00E94D1051F914C
:100C60000F910895209828981092E1041092E004C2
:100C70008FEF9FEF90932C0280932B020895809129
:100C8000E0049091E104019709F43BC08091E004F5
:100C90009091E1040297A9F18FEF9FEF90932C02BE
:100CA00080932B0281E090E09093E1048093E00434
:100CB0005F9880E18A95F1F75F9A85E38A95F1F76D
:100CC0005F9810928000109281001092850010921F
:100CD000840082E08093810080918100806880930D
:100CE00081008091810080648093810083E286BBD3
:100CF00082E280936F0080E69AEE90938900809361
:100D0000880008958091E0049091E104039741F0F8
:100D10008091E0049091E10420E030E0049711F428
:100D200021E030E0822F08954FB7F89420912B02F4
:100D300030912C028091E0049091E104039731F00E
:100D40008091E0049091E104049721F41092E10471
:100D50001092E0044FBFC90108951F920F920FB681
:100D60000F9211242F933F935F936F937F938F93F1
:100D70009F93AF93BF93209186003091870080911D
:100D8000E0049091E104019761F43093E30420932F
:100D9000E204809181008F7B8093810082E090E06B
:100DA00020C08091E0049091E1040297F1F4309327
:100DB000E5042093E40410926F008091E404909184
:100DC000E5042091E2043091E304821B930B64E775
:100DD00070E00E94600B70932C0260932B0283E002
:100DE00090E09093E1048093E004BF91AF919F91D4
:100DF0008F917F916F915F913F912F910F900FBED7
:100E00000F901F9018951F920F920FB60F921124FA
:100E10008F939F938091E0049091E104019731F0CA
:100E20008091E0049091E104029771F410926F00B8
:100E30008FEF9FEF90932C0280932B0284E090E041
:100E40009093E1048093E0049F918F910F900FBEE7
:100E50000F901F9018959B01AC011092B90060E0B3
:100E600074E284EF90E00E94870B205130404040B4
:100E7000504056954795379527952F3F31054105A9
:100E8000510529F020F02FEF30E040E050E02093B2
:100E9000B80084E08093BC000895982F84EA809382
:100EA000BC008091BC0087FFFCCF8091B900887F97
:100EB000883021F0803111F090E016C09093BB0093
:100EC00084E88093BC008091BC0087FFFCCF8091B8
:100ED000B900887F883111F491E006C090E0803439
:100EE00009F091E081E09827892F08958093BB0055
:100EF00084E88093BC008091BC0087FFFCCF809188
:100F0000B90090E0887F883209F491E0892F089534
:100F100084E98093BC0008951F920F920FB60F9240
:100F200011242F938F939F93EF93FF932091C600EB
:100F30009091E7049F5F8091E604981741F0E0915B
:100F4000E704F0E0E851FB4F20839093E704FF9122
:100F5000EF919F918F912F910F900FBE0F901F9047
:100F600018959B01AC0184E0220F331F441F551FCD
:100F70008A95D1F760E074E284EF90E00E94870BDD
:100F8000215030403093C5002093C4001092C0001F
:100F900088E98093C10086E08093C2000895982F6D
:100FA0008091C00085FFFCCF9093C6000895FC019E
:100FB00007C08091C00085FFFCCF31969093C6009A
:100FC00090819923B1F708959091E7048091E60408
:100FD00020E0981321E0822F08958091E604E8EE46
:100FE000F4E0E80FF11D80819091E6049F5F9093FB
:100FF000E60408950F931F93CF93DF938C0190E045
:1010000070E0615070401EC0D901AA0FBB1FA00F35
:10101000B11F4D915C911197F9013196EE0FFF1FB1
:10102000E00FF11F208131812417350724F42D931F
:101030003C93518340838F5F282F30E02C173D076E
:101040001CF39F5F292F30E0261737072CF480E030
:10105000EB01C21BD30BF0CFDF91CF911F910F910A
:1010600008953F924F925F926F927F928F929F92DC
:10107000AF92BF92CF92DF92EF92FF920F931F93A6
:10108000DF93CF93CDB7DEB7ED970FB6F894DEBF01
:101090000FBECDBF0E94190560E875E280E090E0C8
:1010A0000E94B1070E9438010E9432060E94860009
:1010B0000E94F00578940E94EC0580E060E00E94B8
:1010C000DF058DE292E00E9498058DE392E062E4F4
:1010D00072E00E947C011AAE1BAE1CAE1DAE1EAAB1
:1010E0001FAA18AE19AE4424552432013324882493
:1010F000992454010FEF1FEF02C0332433940E9450
:1011000041016B017C010E94BF01D701C6012AADDC
:101110003BAD4CAD5DAD821B930BA40BB50BB7FD86
:101120000BC0D701C601C296A11DB11D8AAF9BAFEE
:10113000ACAFBDAF0E943F060E948206882309F42F
:10114000AEC00E9494069C0101971091EB05805956
:10115000914090F1112321F490E00FEF1FEF7CC03C
:1011600020E030E0412F50E0440F551F0FC0E4E273
:10117000F0E0EC0FFD1FE20FF31FD901A351BA4FAE
:101180008D919C91918380832E5F3F4F241735076B
:1011900071F7CE018496612F0E94FA071695E12F10
:1011A000F0E0EE0FFF1F21E030E02C0F3D1FE20FBB
:1011B000F31F03A114A143C08091EC0590E0FC0152
:1011C000EE0FFF1FE351FA4F31832083019669E050
:1011D00070E00E94740B8093EC05193018F41F5FC7
:1011E0001093EB051091EB0520E030E0412F50E02B
:1011F000440F551F0FC0E2E1F0E0EC0FFD1FE20FBE
:10120000F31FD901A351BA4F8D919C919183808393
:101210002E5F3F4F2417350771F7CE014296612F9D
:101220000E94FA071695E12FF0E0EE0FFF1F41E054
:1012300050E04C0F5D1FE40FF51F0189128917FD67
:101240000AC00E31110514F492E006C002321105F5
:1012500014F491E001C090E08091E805981759F4EA
:101260008091E9058E3120F48F5F8093E90507C0F6
:101270009093EA0504C09093E8051092E9058091E7
:10128000EA05813039F0813040F0823041F40E942B
:10129000260505C00E942B0502C00E9430058091E2
:1012A000EA05B701A6010E9499000E945201882315
:1012B000E9F010161106D4F4D701C6012EA93FA9F2
:1012C00048AD59AD821B930BA40BB50B81529E44C4
:1012D000A040B04058F08BE492E0B8010E945C015D
:1012E000882321F0CEAADFAAE8AEF9AE0E9452010F
:1012F000882359F0332061F40E94EC058CE592E0DC
:101300000E9498054601570103C0332009F4F7CE27
:1013100081149104A104B10409F482C0D701C6016B
:1013200088199909AA09BB09885E9340A040B0407A
:1013300008F4E3CE0E94EC0573C017FF1EC000D076
:1013400000D000D0EDB7FEB7319621E030E02C0F91
:101350003D1FADB7BEB712963C932E93119741E156
:1013600050E05383428389E692E0958384830E9410
:10137000310CADB7BEB7169625C02DB73EB7285075
:1013800030400FB6F8943EBF0FBE2DBFEDB7FEB78D
:10139000319621E030E02C0F3D1FADB7BEB712965D
:1013A0003C932E93119741E150E05383428387E7AA
:1013B00092E095838483178306830E94310CADB736
:1013C000BEB718960FB6F894BEBF0FBEADBF80E093
:1013D00060E00E94DF05CE0101960E94980580E042
:1013E00061E00E94DF050E944F01882319F084E824
:1013F00092E011C08091EA05813029F0813048F0F7
:10140000823039F403C084E992E005C085EA92E0B5
:1014100002C086EB92E00E949805260137010CC0BD
:10142000D701C60184199509A609B7098C529140C4
:10143000A040B04008F081CF33243394882499240D
:1014400054015DCEABE0B0E0E8E2FAE00C94AD0B05
:101450005C014B017A01FC0117821682838181FDB8
:1014600008C06FEF7FEF08C142E050E0E40EF51EC8
:1014700004C03E010894611C711CF501D380F40185
:10148000D3FC8591D3FE81914F01882309F4F1C0EB
:10149000853259F4D3FC6591D3FE61914F016532D9
:1014A00019F0062F10E01BC085E290E02BC000234E
:1014B00009F4DFC08FE690E0602F70E00E94E00B3F
:1014C000892B39F4033211F4106103C00C3661F436
:1014D0001068F401D3FC0591D3FE01914F0117FF71
:1014E000E6CF002309F4C5C088E690E0602F70E0E5
:1014F0000E94E00B892B51F044E050E0E40EF51E11
:101500008FE390E0B5010E94050CB7CF033629F0B8
:10151000033779F00335F1F40BC087010E5F1F4FDD
:10152000F70180819181B5010E94050C7801A5CF5A
:101530001160F701C080D18004C090E0B5010E9425
:10154000050CF60110FD859110FF81916F01882334
:10155000A1F78ACF043611F0093639F517FF08C014
:10156000F701208131814281538184E090E00AC0FB
:10157000F701808191819C01442737FD4095542FCC
:1015800082E090E0E80EF91E1F7E57FF08C05095DC
:101590004095309521953F4F4F4F5F4F1064CA01E2
:1015A000B901A3012AE030E034C00037A9F00137C7
:1015B00030F40835B1F00F3609F05BC006C00537CE
:1015C00039F0083709F055C008C028E030E00CC0F9
:1015D0001F7E2AE030E008C01061146220E130E094
:1015E00003C0146020E132E017FF08C0F7016081FA
:1015F00071818281938144E050E008C0F7018081CD
:101600009181BC0180E090E042E050E0E40EF51EE4
:10161000A3010E94620CD82ED618012F10E006FFFD
:1016200005C08DE290E0B5010E94050C04FF15C0D5
:10163000FE01ED0DF11D8081803379F080E390E0B3
:10164000B5010E94050C02FF08C000721070C801AD
:10165000885A9F4FB5010E94050CDA94F301ED0DF5
:10166000F11D808190E0B5010E94050CDD20A9F7F5
:1016700004CFF50166817781CB012B96EEE00C94C7
:10168000C90B629FD001739FF001829FE00DF11D95
:10169000649FE00DF11D929FF00D839FF00D749FEC
:1016A000F00D659FF00D9927729FB00DE11DF91F98
:1016B000639FB00DE11DF91FBD01CF0111240895F5
:1016C000AA1BBB1B51E107C0AA1FBB1FA617B70768
:1016D00010F0A61BB70B881F991F5A95A9F7809584
:1016E0009095BC01CD01089597FB092E07260AD0DD
:1016F00077FD04D0E5DF06D000201AF470956195DF
:101700007F4F0895F6F7909581959F4F0895A1E238
:101710001A2EAA1BBB1BFD010DC0AA1FBB1FEE1F6B
:10172000FF1FA217B307E407F50720F0A21BB30BB6
:10173000E40BF50B661F771F881F991F1A9469F732
:1017400060957095809590959B01AC01BD01CF018E
:1017500008952F923F924F925F926F927F928F9255
:101760009F92AF92BF92CF92DF92EF92FF920F9330
:101770001F93CF93DF93CDB7DEB7CA1BDB0B0FB63A
:10178000F894DEBF0FBECDBF09942A8839884888F7
:101790005F846E847D848C849B84AA84B984C8848D
:1017A000DF80EE80FD800C811B81AA81B981CE0F84
:1017B000D11D0FB6F894DEBF0FBECDBFED01089569
:1017C000FC010590061621F00020D9F7C00108950C
:1017D0003197CF010895FB0151915523A9F0BF0125
:1017E000DC014D9145174111E1F759F4CD0101900C
:1017F000002049F04D9140154111C9F3FB01411101
:10180000EFCF81E090E0019708950F931F93CF935E
:10181000DF938C01EB018B8181FF1BC082FF0DC028
:101820002E813F818C819D812817390764F4E881DE
:10183000F9810193F983E88306C0E885F985802F53
:101840000995892B31F48E819F8101969F838E8328
:1018500002C00FEF1FEFC801DF91CF911F910F91D1
:101860000895AEE0B0E0E7E3FCE00C94B70B0D891F
:101870001E898F89988D97FF02C080E090E80197BC
:101880009E838D831A83098386E08C839E01255E67
:101890003F4FCE010196698D7A8DA9010E94220ADF
:1018A0004D815E8157FD0AC02F813885421753074D
:1018B0000CF49A01020F131FF80110822E96E4E037
:1018C0000C94D30BFA01AA27283051F1203181F171
:1018D000E8946F936E7F6E5F7F4F8F4F9F4FAF4F38
:1018E000B1E03ED0B4E03CD0670F781F891F9A1F4B
:1018F000A11D680F791F8A1F911DA11D6A0F711DFF
:10190000811D911DA11D20D009F468943F912AE00A
:10191000269F11243019305D3193DEF6CF010895F2
:10192000462F4770405D4193B3E00FD0C9F7F6CF23
:10193000462F4F70405D4A3318F0495D31FD4052EB
:10194000419302D0A9F7EACFB4E0A6959795879581
:1019500077956795BA95C9F7009761057105089560
:101960009B01AC010A2E069457954795379527950C
:10197000BA95C9F7620F731F841F951FA01D0895A4
:04198000F894FFCF09
:10198400FF0D0A004154004F4B00415445300041C3
:10199400542B43574D4F44453D310041542B43494B
:1019A400504D55583D300041542B43574A41503D0A
:1019B400222573222C2225732200574946492043AD
:1019C4004F4E4E454354454400414C5245414459C1
:1019D40020434F4E4E4543544544004641494C0034
:1019E40041542B43495053544152543D2254435083
:1019F400222C226170692E7468696E677370656148
:101A04006B2E636F6D222C383000434F4E4E45438E
:101A14005400474554202F7570646174653F6170AC
:101A2400695F6B65793D2573266669656C64313D34
:101A3400256420485454502F312E310D0A486F73B9
:101A4400743A206170692E7468696E677370656199
:101A54006B2E636F6D0D0A436F6E6E656374696FF1
:101A64006E3A20636C6F73650D0A0D0A0041542BA6
:101A740043495053454E443D2575004552524F52FB
:101A84000041542B434950434C4F5345003E0032D0
:101A94003030204F4B00485454502F312E310053D6
:101AA400454E44204F4B00FFFF0040FFFF436F6E45
:101AB4006E656374696E67205769466900494A42D6
:101AC400430069616E31323334350056594156371B
:101AD4004D334D5858485848465645005379737409
:101AE400656D205265616479004C6576656C3A20B9
:101AF4002D2D2D20636D004C6576656C3A20256490
:101B040020636D003E3E2055504C4F4144494E47A2
:101B1400203E3E0020202020205052455041524576
:101B240020202020002020202045564143554154A8
:101B340045202020200020202020202053414645FD
:081B44002020202020200000D9
:00000001FF
